:100000001309090B22002A00F70C060066057F057C
:1000100024092A0340000307FF0C2600FF02080AF8
:10002000240966042409FF0C060000084607160A86
:100030002D0C25097F050304460703052A0324091F
:10004000FF021B0A0F0C250A1E0C2900E902260AD2
:100050000008490856084D08450844080D08000ADC
:100060004F0B560B7A0B780B6F0B2E0CCC01020A40
:100070001E02E20101080208020802080208020842
:100080000208010802080208020802080208020821
:10009000010801083003310332033303340335030D
:1000A00036033703380339033A030008170C2400DA
:1000B000080C3E0020036B0320036F0320036A0338
:1000C00020036E032003690320036D0320036803EC
:1000D00020036C03E400FE025A0AA305E809A40504
:1000E000F00C3000CC0C3100AA0C3200F50C3300BF
:1000F000560C3400670C35008F0C360027078E0A2B
:10010000000C3000000C3100000C3200000C3300F9
:10011000000C3400000C3500000C3600A404100C58
:100120003E00FE00A305FE06C10AA3043809210013
:100130000706AC0AA405030476037503740373036E
:100140007203710370039306160593040306930567
:10015000E1029B0AA305FA0ADE01A4052306AA0A06
:10016000030430033103320333033403350336030E
:100170007306F005730403067305E102B00AAA0AC8
:100180002E08E008C408BF084D0827081108C40855
:1001900072084E08AF087208BB08DD08680811082D
:1001A00083085A085A0806083608FC08FC08AB08F9
:1001B000D508390809089508E008830897086808F1
:1001C0004408BF0821088C081E08C808B80872082F
:1001D000AD081408D608E908720821088B08D7086A
:1001E000FF0865089C08FB08C908030857089E0813
:1001F0006308AA083A08400805085608E0083D08C0
:1002000018023400190235001A0236001B023700AA
:10021000910A300C3D007F006F0B470516090A025A
:1002200030000D0F4306420B1D061D0B1002440F3C
:1002300043064704010F4306470416090A0231002A
:100240000D0F4306420B120C2400080C2B0016095C
:100250000A02200047072F0B0D0F4306420BA40292
:10026000EB02270B030C2B0016090A0220000D0FCE
:100270004306420BA402EB02340B16090A020D0FCF
:1002800043073D0B0A0C0309060C2C00280CCC017B
:10029000020990014306350AEC02460B0D0B410C96
:1002A0003200310C3300020C3E00640B0D0C910146
:1002B0004306600B030C51013D00300CFD016F0B38
:1002C0001D023000010C3E00100C24000002030946
:1002D000A402FE02660B0D0C03090A0C03094F0C65
:1002E00003094B0C03090D0C03090A0C03090D0B40
:1002F00007057B0B07042704110627051D07E60BDE
:10030000120C24000B0C2C00200CA0003F0C6001F0
:10031000A402EC02840B03047303730373037203DC
:10032000730352033000750375033403350314035C
:100330003503130131001502320077037703770389
:1003400076037703560333007903790338033903BF
:100350001803390317013400190235007B037B03AE
:100360007B037A037B035A0336003C031C030F0E06
:100370001B01370056093D07C10B6702560967028A
:100380005609780003044A094A094B094B094C09EC
:100390004C094D094D094E094E094F094F095009A5
:1003A0005009510951095209520953095309540975
:1003B0005409100C24000B0C2C003F0C6001200C85
:1003C000E001A402EC02DD0B0B0CFE0B120230006C
:1003D00013023100140232001502330016023400F9
:1003E00017023500180236001902370056093D077A
:1003F000FD0B6702560967025609080C3E00640BA4
:10040000CF08A3081108FD08A8084408FE0827081B
:1004100096087F082B08C2086308980884085E08BD
:1004200009086C08D70810083208D1084D08EA08F6
:10043000EC0806087008B90855083B08BA08850892
:1004400090084D08EE083808F7082A085B08C1082C
:100450002A08930884085F08CD08F4083108A20828
:100460007508BB080808E6084C081708A6087C08A9
:1004700019086008D3080508B2088E086F08D90863
:100480004A08DD08B00807082908B008EE0879080E
:10049000F6084308030894088F081608D508AA0828
:1004A0003108E208CD0838089C0855087708CE08BE
:1004B0005B082C08A408FB0862088F08180861086C
:1004C0001D0861084608BA08B408DD08D908800884
:1004D000C80816083F0849087308A808E008770804
:1004E000AB089408F1085F0862080E088C08F3084E
:1004F0000508EB085A0825089E0832082708CC088A
:10050000D7081D082D08F8088E08DB084308850861
:100510006008A608F6083F08B90870081A084308DA
:10052000A108C4089208570838086208E508BC0802
:100530005B0801080C08EA08C4089E087F0829081F
:100540007A082308B6081F084908E008100876084A
:100550009C084A08CB08A108E7088D082D08D80890
:100560000F08F9086108C408A3089508DE080B08FD
:10057000F5083C0832085708580862088408BE0885
:10058000220010023400110235001202360013025C
:10059000370018023000190231001A0232001B0223
:1005A00033000F0C2400080C3E007403600370033A
:1005B00060037503600371036003760360037203D5
:1005C00060037703600373036003E400FE02D50A4F
:1005D0000F0237000E0236000D0235000C02340007
:1005E0000B0233000A023200090231000802300017
:1005F000A304000868005106A805F2068805B106A4
:10060000680512064805F006280570060805690009
:10061000B006A90593068905310669055006490506
:1006200072062905D10609056A003206AA05B20636
:100630008A0591066A0590064A05D3062A05100622
:100640000A056B001106AB0530068B05B3066B057A
:1006500092064B0571062B05D0060B056C00F506BE
:10066000AC0596068C0533066C0574064C053506FC
:100670002C0536060C056D005306AD0514068D05D8
:10068000B6066D0575064D05F4062D0515060D0516
:100690006E009506AE05F6068E0534066E05160646
:1006A0004E05D4062E0576060E056F005506AF05DD
:1006B000D5068F05D6066F0594064F0573062F05E0
:1006C00013060F05A404780079007A007B00170355
:1006D000140321002103010388013F0EC00DA30470
:1006E0000209A30521006106F9054106FA05210664
:1006F0003A0501063B055503540389013F0EC00925
:1007000021006106790541069B052106D8050106F1
:10071000DA05140315032100210301038A013F0EAA
:10072000400DC009210061061A0541061905210680
:100730005B0501065805560355038B013F0E800DDE
:10074000C00921006106DB0541069A052106D9058D
:100750000106F805150316032100210301038C018E
:100760003F0EC00DA3040209A3052100E1061805F0
:10077000C1065905A106FB058106B80557035603B6
:100780008D013F0EC0092100E1069805C1067B05D9
:10079000A106B9058106BA05160317032100210336
:1007A00001038E013F0E400DC0092100E1061B052B
:1007B000C1069905A1065A05810638055403570359
:1007C0008F013F0E800DC0092100E1067805C106AA
:1007D000BB05A106390581067A051002B801110290
:1007E000B9011202BA011302BB0114023000150252
:0E07F00031001602320017023300A304000B82
:00000001FF
