:10000000FF306500303092007B288A0113152C21C7
:100010002D0894000D3A03193B28121816281408CD
:10002000443A03191311013A031913112C212D0815
:1000300095000D3A03193B28163084000830AE00B5
:100040002C212D088000131D28280D3A03193B2868
:10005000840AAE0B20280330AE002C212D0880002E
:100060000D3A03193B28840AAE0B2D282C212D08AC
:100070000D3A031D36280A3018210630AF004A30E9
:100080002F074A20140603194828AF0B3F280528DC
:1000900050302F078200493456344D3445344434AF
:1000A0000D34002857286228862884287B28303081
:1000B00094002E309500393096004430970004307B
:1000C000A00070280D30150603196C2803301505A3
:1000D0009200303092077B28120894000130A00073
:1000E0001430840000081821840AA00B72280D30F7
:1000F00018210A3018214F3018214B3018210D30AB
:1001000018210A301821052813148728131093107A
:1001100015189314121CF228163084000B30AF000F
:10012000203080023F308005840AAF0B90280310F6
:10013000970D970D970D960D970D160D9400990D2F
:10014000990D980C990C180C990C17049500190826
:1001500096009B0D9B0D9B0D9A0D9B0D1A0D970004
:100160009D0D9D0D9C0C9D0C1C0C9D0C1B04980062
:100170001D0899009F0D9F0D9F0D9E0D9F0D1E0D3B
:100180009A00A00C200C0F391F049B004121921CE7
:10019000CD2893094121930941219C0103100C2191
:1001A0000C210D210D210E210E210F210F211021D7
:1001B00010211121112112211221132113211421A7
:1001C00014211521152116211621143084000B301D
:1001D000AF003F30800520308007840AAF0BE9284C
:1001E0000B300A2916089400170895001808960085
:1001F000190897001A0898001B0899001C089A0013
:100200001D089B004121921C092993094121930952
:1002100041210830A0007028940C950C960C970C86
:10022000980C990C9A0C9B0C9C0C9D0C9E0C003409
:10023000AD00F730650085150830AB003C21AD0CF2
:100240000301031CFF308500AB0B1E293C218511E7
:100250003C21FF3065000034051D2C292D303D2147
:100260000830AB000310051D0314AD0C3C21AB0B93
:1002700032290F303D2100341E30AC00AC0B3E293A
:1002800000341B3084000830A000800CAB0D800CC3
:10029000AF0D800CAA0D800CAE0D800CA90D800C4A
:1002A000AD0D800CA80D800CAC0D8403A00B45296E
:1002B000D222F030A100CC30A200AA30A300F53049
:1002C000A4005630A5006730A6008F30A700931C0D
:1002D00077290030A1000030A2000030A3000030D8
:1002E000A4000030A5000030A6000030A7001030A8
:1002F000A000A003A01BAB2AEC22910013189029A8
:100300000310A70DA60DA50DA40DA30DA20DA10D03
:10031000241A2714241203182416910B8029A329C8
:100320000F3020060319A3290310A10CA20CA30C63
:10033000A40CA50CA60CA70CA419A117A4110318B2
:10034000A415910B9429A8012219A816A31B2816FD
:10035000A21AA81523182815A11BA814A11928143E
:10036000A901A11AA916241A2916A218A91521193A
:100370002915A319A914221B2914AA01A318AA1626
:10038000A31A2A16221AAA15211A2A15241BAA14FE
:1003900021182A14AB012218AB16A1182B16A41A87
:1003A000AB15231A2B15A219AB14211B2B14AC016E
:1003B000A61BAC16271A2C16A418AC15A5192C15BB
:1003C000A618AC14A7182C14AD012419AD162518C5
:1003D0002D16A71AAD15A6192D15A51BAD14261897
:1003E0002D14AE01261AAE16A71B2E16A518AE1593
:1003F00027182E15251BAE14A7192E14AF01261988
:10040000AF16261B2F16271BAF15251A2F15A4195B
:10041000AF1424182F149C019D019E019F010A1402
:100420001B0C180C9100910C110C28063F394A2026
:10043000910091199D1711199E1791189E1411186A
:100440009F14190D180D29063F3940384A20910094
:1004500091199D1511191F1691181C1711181E17A7
:10046000180C190C9100910C110C2A063F39803898
:100470004A20910091191E1411191D1491181F156D
:1004800011181C151A0D190D2B063F39C0384A20BA
:10049000910091191F1711191E1691181D17111887
:1004A0009C17190C1A0C9100910C110C2C063F3959
:1004B0004A209100911B1C14111B1D15911A9F17A6
:1004C000111A9C161B0D1A0D2D063F3940384A2073
:1004D0009100911B1C16111B9F15911A9D16111A44
:1004E0009E161A0C1B0C9100910C110C2E063F3914
:1004F00080384A209100911B1F14111B1D16911A60
:100500001E15111A9C14180D1B0D2F063F39C038EB
:100510004A209100911B9C15111B9F16911A9D1446
:10052000111A9E1514089C0615089D0616089E06AD
:1005300017089F0618089400190895001A089600D5
:100540001B0897001C0898001D0899001E089A00B7
:100550001F089B00792914089800150899001608AF
:100560009A0017089B001C0894001D0895001E089F
:1005700096001F0897002F3084000830A000980DC7
:10058000800D940D800D990D800D950D800D9A0DA7
:10059000800D960D800D9B0D800D970D800D8403B1
:1005A000A00BBF2A2F089B002E089A002D08990047
:1005B0002C0898002B0897002A0896002908950017
:0605C0002808940000343D
:0805D80002308A0020088207AE
:1005E000013402340234023402340234023401345D
:1005F000023402340234023402340234013401344D
:100600002E34E034C434BF344D3427341134C43470
:1006100072344E34AF347234BB34DD346834113448
:1006200083345A345A3406343634FC34FC34AB3414
:10063000D534393409349534E0348334973468340C
:100640004434BF3421348C341E34C834B83472344A
:10065000AD341434D634E934723421348B34D73485
:10066000FF3465349C34FB34C934033457349E342E
:100670006334AA343A34403405345634E0343D34DB
:10068000CF34A3341134FD34A8344434FE34273439
:1006900096347F342B34C2346334983484345E34DB
:1006A00009346C34D73410343234D1344D34EA3414
:1006B000EC3406347034B93455343B34BA348534B0
:1006C00090344D34EE343834F7342A345B34C1344A
:1006D0002A34933484345F34CD34F4343134A23446
:1006E0007534BB340834E6344C341734A6347C34C7
:1006F00019346034D3340534B2348E346F34D93481
:100700004A34DD34B03407342934B034EE3479342B
:10071000F6344334033494348F341634D534AA3445
:100720003134E234CD3438349C3455347734CE34DB
:100730005B342C34A434FB3462348F341834613489
:100740001D3461344634BA34B434DD34D9348034A1
:10075000C83416343F3449347334A834E034773421
:10076000AB349434F1345F3462340E348C34F3346B
:100770000534EB345A3425349E3432342734CC34A7
:10078000D7341D342D34F8348E34DB34433485347F
:100790006034A634F6343F34B93470341A344334F8
:1007A000A134C4349234573438346234E534BC3420
:1007B0005B3401340C34EA34C4349E347F3429343D
:1007C0007A342334B6341F344934E0341034763468
:1007D0009C344A34CB34A134E7348D342D34D834AE
:1007E0000F34F9346134C434A3349534DE340B341B
:1007F000F5343C3432345734583462348434BE34A3
:00000001FF
